{
  "_format": "hh-sol-artifact-1",
  "contractName": "NativeLiquidityPool",
  "sourceName": "contracts/NativeLiquidityPool.sol",
  "abi": [
    {
      "inputs": [
        {
          "internalType": "address",
          "name": "_factory",
          "type": "address"
        }
      ],
      "stateMutability": "nonpayable",
      "type": "constructor"
    },
    {
      "anonymous": false,
      "inputs": [
        {
          "indexed": true,
          "internalType": "address",
          "name": "tokenAddress",
          "type": "address"
        },
        {
          "indexed": true,
          "internalType": "address",
          "name": "provider",
          "type": "address"
        },
        {
          "indexed": false,
          "internalType": "uint256",
          "name": "tokenAmount",
          "type": "uint256"
        },
        {
          "indexed": false,
          "internalType": "uint256",
          "name": "avaxAmount",
          "type": "uint256"
        }
      ],
      "name": "LiquidityAdded",
      "type": "event"
    },
    {
      "anonymous": false,
      "inputs": [
        {
          "indexed": true,
          "internalType": "address",
          "name": "token",
          "type": "address"
        },
        {
          "indexed": true,
          "internalType": "address",
          "name": "provider",
          "type": "address"
        },
        {
          "indexed": false,
          "internalType": "uint256",
          "name": "tokenAmount",
          "type": "uint256"
        },
        {
          "indexed": false,
          "internalType": "uint256",
          "name": "ethAmount",
          "type": "uint256"
        }
      ],
      "name": "LiquidityRemoved",
      "type": "event"
    },
    {
      "inputs": [
        {
          "internalType": "address",
          "name": "_tokenAddress",
          "type": "address"
        },
        {
          "internalType": "uint256",
          "name": "tokenAmount",
          "type": "uint256"
        },
        {
          "internalType": "address[]",
          "name": "contributors",
          "type": "address[]"
        },
        {
          "internalType": "uint256[]",
          "name": "contributorAmounts",
          "type": "uint256[]"
        }
      ],
      "name": "addLiquidity",
      "outputs": [],
      "stateMutability": "payable",
      "type": "function"
    },
    {
      "inputs": [],
      "name": "factory",
      "outputs": [
        {
          "internalType": "address",
          "name": "",
          "type": "address"
        }
      ],
      "stateMutability": "view",
      "type": "function"
    },
    {
      "inputs": [
        {
          "internalType": "address",
          "name": "_tokenAddress",
          "type": "address"
        },
        {
          "internalType": "uint256",
          "name": "tokenAmount",
          "type": "uint256"
        }
      ],
      "name": "getEstimatedEthForTokens",
      "outputs": [
        {
          "internalType": "uint256",
          "name": "",
          "type": "uint256"
        }
      ],
      "stateMutability": "view",
      "type": "function"
    },
    {
      "inputs": [
        {
          "internalType": "address",
          "name": "_tokenAddress",
          "type": "address"
        },
        {
          "internalType": "uint256",
          "name": "ethAmount",
          "type": "uint256"
        }
      ],
      "name": "getEstimatedTokensForEth",
      "outputs": [
        {
          "internalType": "uint256",
          "name": "",
          "type": "uint256"
        }
      ],
      "stateMutability": "view",
      "type": "function"
    },
    {
      "inputs": [
        {
          "internalType": "address",
          "name": "",
          "type": "address"
        }
      ],
      "name": "liquidity",
      "outputs": [
        {
          "internalType": "uint256",
          "name": "",
          "type": "uint256"
        }
      ],
      "stateMutability": "view",
      "type": "function"
    },
    {
      "inputs": [
        {
          "internalType": "address",
          "name": "",
          "type": "address"
        },
        {
          "internalType": "address",
          "name": "",
          "type": "address"
        }
      ],
      "name": "liquidityDepositTime",
      "outputs": [
        {
          "internalType": "uint256",
          "name": "",
          "type": "uint256"
        }
      ],
      "stateMutability": "view",
      "type": "function"
    },
    {
      "inputs": [
        {
          "internalType": "address",
          "name": "_tokenAddress",
          "type": "address"
        },
        {
          "internalType": "uint256",
          "name": "liquidityAmount",
          "type": "uint256"
        }
      ],
      "name": "removeLiquidity",
      "outputs": [],
      "stateMutability": "nonpayable",
      "type": "function"
    },
    {
      "inputs": [
        {
          "internalType": "uint256",
          "name": "_vestingPeriod",
          "type": "uint256"
        }
      ],
      "name": "setVestingPeriod",
      "outputs": [],
      "stateMutability": "nonpayable",
      "type": "function"
    },
    {
      "inputs": [
        {
          "internalType": "address",
          "name": "_tokenAddress",
          "type": "address"
        }
      ],
      "name": "swapEthForToken",
      "outputs": [],
      "stateMutability": "payable",
      "type": "function"
    },
    {
      "inputs": [
        {
          "internalType": "address",
          "name": "_tokenAddress",
          "type": "address"
        },
        {
          "internalType": "uint256",
          "name": "_tokenAmount",
          "type": "uint256"
        }
      ],
      "name": "swapTokenForEth",
      "outputs": [],
      "stateMutability": "nonpayable",
      "type": "function"
    },
    {
      "inputs": [
        {
          "internalType": "address",
          "name": "",
          "type": "address"
        },
        {
          "internalType": "address",
          "name": "",
          "type": "address"
        }
      ],
      "name": "userLiquidity",
      "outputs": [
        {
          "internalType": "uint256",
          "name": "",
          "type": "uint256"
        }
      ],
      "stateMutability": "view",
      "type": "function"
    },
    {
      "inputs": [],
      "name": "vestingPeriod",
      "outputs": [
        {
          "internalType": "uint256",
          "name": "",
          "type": "uint256"
        }
      ],
      "stateMutability": "view",
      "type": "function"
    }
  ],
  "bytecode": "0x6080604052348015600f57600080fd5b506040516114c93803806114c9833981016040819052602c9160a2565b6001600160a01b03811660775760405162461bcd60e51b815260206004820152600f60248201526e496e76616c696420666163746f727960881b604482015260640160405180910390fd5b600080546001600160a01b0319166001600160a01b039290921691909117905562093a8060015560d0565b60006020828403121560b357600080fd5b81516001600160a01b038116811460c957600080fd5b9392505050565b6113ea806100df6000396000f3fe6080604052600436106100a75760003560e01c80639a20fb5a116100645780639a20fb5a146101a7578063a201ccf6146101ba578063a4682db3146101da578063b18ed446146101fa578063b8c876b11461020d578063c45a01551461023a57600080fd5b806340bee0ed146100ac57806345fe85b0146100ce57806356f641c9146100ee5780637313ee5a1461013957806376c877491461014f57806398147a0a1461016f575b600080fd5b3480156100b857600080fd5b506100cc6100c7366004610f5d565b610267565b005b3480156100da57600080fd5b506100cc6100e9366004610f92565b6102d7565b3480156100fa57600080fd5b50610126610109366004610fbc565b600460209081526000928352604080842090915290825290205481565b6040519081526020015b60405180910390f35b34801561014557600080fd5b5061012660015481565b34801561015b57600080fd5b5061012661016a366004610f92565b61053d565b34801561017b57600080fd5b5061012661018a366004610fbc565b600360209081526000928352604080842090915290825290205481565b6100cc6101b5366004610fef565b610632565b3480156101c657600080fd5b506100cc6101d5366004610f92565b6107e1565b3480156101e657600080fd5b506101266101f5366004610f92565b610ba5565b6100cc6102083660046110e9565b610c84565b34801561021957600080fd5b50610126610228366004610fef565b60026020526000908152604090205481565b34801561024657600080fd5b5060005461025a906001600160a01b031681565b60405161013091906111cc565b6000546001600160a01b031633146102d25760405162461bcd60e51b815260206004820152602360248201527f4f6e6c7920666163746f72792063616e207365742076657374696e67207065726044820152621a5bd960ea1b60648201526084015b60405180910390fd5b600155565b6001600160a01b03821661031f5760405162461bcd60e51b815260206004820152600f60248201526e496e76616c6964206164647265737360881b60448201526064016102c9565b6040516370a0823160e01b815282906000906001600160a01b038316906370a08231906103509030906004016111cc565b602060405180830381865afa15801561036d573d6000803e3d6000fd5b505050506040513d601f19601f8201168201806040525081019061039191906111e0565b6001600160a01b0385166000908152600260205260408120549192506103b7858461120f565b6103c18387611222565b6103cb9190611239565b9050600081116103ed5760405162461bcd60e51b81526004016102c99061125b565b6040516323b872dd60e01b81526001600160a01b038516906323b872dd9061041d90339030908a90600401611292565b6020604051808303816000875af115801561043c573d6000803e3d6000fd5b505050506040513d601f19601f8201168201806040525081019061046091906112b6565b61049f5760405162461bcd60e51b815260206004820152601060248201526f7472616e73666572206661696c65642160801b60448201526064016102c9565b604051600090339083908381818185875af1925050503d80600081146104e1576040519150601f19603f3d011682016040523d82523d6000602084013e6104e6565b606091505b50509050806105075760405162461bcd60e51b81526004016102c9906112d8565b6001600160a01b0387166000908152600260205260408120805484929061052f908490611305565b909155505050505050505050565b600080821161055e5760405162461bcd60e51b81526004016102c990611318565b6040516370a0823160e01b815283906000906001600160a01b038316906370a082319061058f9030906004016111cc565b602060405180830381865afa1580156105ac573d6000803e3d6000fd5b505050506040513d601f19601f820116820180604052508101906105d091906111e0565b6001600160a01b0386166000908152600260205260409020549091508015806105f7575081155b15610608576000935050505061062c565b610612858261120f565b61061c8387611222565b6106269190611239565b93505050505b92915050565b600034116106525760405162461bcd60e51b81526004016102c990611318565b6040516370a0823160e01b815281906000906001600160a01b038316906370a08231906106839030906004016111cc565b602060405180830381865afa1580156106a0573d6000803e3d6000fd5b505050506040513d601f19601f820116820180604052508101906106c491906111e0565b6001600160a01b0384166000908152600260205260408120549192506106ea348361120f565b6106f48434611222565b6106fe9190611239565b9050600081116107205760405162461bcd60e51b81526004016102c99061125b565b60405163a9059cbb60e01b8152336004820152602481018290526001600160a01b0385169063a9059cbb906044016020604051808303816000875af115801561076d573d6000803e3d6000fd5b505050506040513d601f19601f8201168201806040525081019061079191906112b6565b6107ad5760405162461bcd60e51b81526004016102c990611342565b6001600160a01b038516600090815260026020526040812080543492906107d590849061120f565b90915550505050505050565b6001600160a01b038216600090815260036020908152604080832033845290915290205481111561084d5760405162461bcd60e51b8152602060048201526016602482015275496e73756666696369656e74206c697175696469747960501b60448201526064016102c9565b6001546001600160a01b038316600090815260046020908152604080832033845290915290205461087e919061120f565b4210156108c95760405162461bcd60e51b8152602060048201526019602482015278131a5c5d5a591a5d1e481a5cc81cdd1a5b1b081b1bd8dad959603a1b60448201526064016102c9565b6040516370a0823160e01b815282906000906001600160a01b038316906370a08231906108fa9030906004016111cc565b602060405180830381865afa158015610917573d6000803e3d6000fd5b505050506040513d601f19601f8201168201806040525081019061093b91906111e0565b6001600160a01b038516600090815260026020526040812054919250816109628187611222565b61096c9190611239565b6001600160a01b038716600090815260026020526040812054919250906109938588611222565b61099d9190611239565b90506000821180156109af5750600081115b6109fb5760405162461bcd60e51b815260206004820152601e60248201527f496e73756666696369656e74207769746864726177616c20616d6f756e74000060448201526064016102c9565b6001600160a01b038716600090815260036020908152604080832033845290915281208054889290610a2e908490611305565b90915550506001600160a01b03871660009081526002602052604081208054849290610a5b908490611305565b9091555050604051600090339084908381818185875af1925050503d8060008114610aa2576040519150601f19603f3d011682016040523d82523d6000602084013e610aa7565b606091505b5050905080610ac85760405162461bcd60e51b81526004016102c9906112d8565b60405163a9059cbb60e01b8152336004820152602481018390526001600160a01b0387169063a9059cbb906044016020604051808303816000875af1158015610b15573d6000803e3d6000fd5b505050506040513d601f19601f82011682018060405250810190610b3991906112b6565b610b555760405162461bcd60e51b81526004016102c990611342565b604080518381526020810185905233916001600160a01b038b16917f3b5c196aff80bb96c03b41c96906b66827014de931d1b36e0ede6ee8caeb4bf9910160405180910390a35050505050505050565b6000808211610bc65760405162461bcd60e51b81526004016102c990611371565b6040516370a0823160e01b815283906000906001600160a01b038316906370a0823190610bf79030906004016111cc565b602060405180830381865afa158015610c14573d6000803e3d6000fd5b505050506040513d601f19601f82011682018060405250810190610c3891906111e0565b6001600160a01b038616600090815260026020526040902054909150801580610c5f575081155b15610c70576000935050505061062c565b610c7a858361120f565b61061c8287611222565b60003411610ca45760405162461bcd60e51b81526004016102c990611318565b60008311610cc45760405162461bcd60e51b81526004016102c990611371565b6040516323b872dd60e01b815284906001600160a01b038216906323b872dd90610cf690339030908990600401611292565b6020604051808303816000875af1158015610d15573d6000803e3d6000fd5b505050506040513d601f19601f82011682018060405250810190610d3991906112b6565b610d775760405162461bcd60e51b815260206004820152600f60248201526e151c985b9cd9995c8819985a5b1959608a1b60448201526064016102c9565b6000546001600160a01b03163303610e855760005b8351811015610e7f57828181518110610da757610da761139e565b602002602001015160036000886001600160a01b03166001600160a01b031681526020019081526020016000206000868481518110610de857610de861139e565b60200260200101516001600160a01b03166001600160a01b031681526020019081526020016000206000828254610e1f919061120f565b90915550506001600160a01b03861660009081526004602052604081208551429290879085908110610e5357610e5361139e565b6020908102919091018101516001600160a01b0316825281019190915260400160002055600101610d8c565b50610ee4565b6001600160a01b038516600090815260036020908152604080832033845290915281208054349290610eb890849061120f565b90915550506001600160a01b038516600090815260046020908152604080832033845290915290204290555b6001600160a01b03851660009081526002602052604081208054349290610f0c90849061120f565b90915550506040805185815234602082015233916001600160a01b038816917f36f3b2e1a21c19137dd82ec243b0708a1d26b3d1fa1dc49c44c4c366a5878138910160405180910390a35050505050565b600060208284031215610f6f57600080fd5b5035919050565b80356001600160a01b0381168114610f8d57600080fd5b919050565b60008060408385031215610fa557600080fd5b610fae83610f76565b946020939093013593505050565b60008060408385031215610fcf57600080fd5b610fd883610f76565b9150610fe660208401610f76565b90509250929050565b60006020828403121561100157600080fd5b61100a82610f76565b9392505050565b634e487b7160e01b600052604160045260246000fd5b604051601f8201601f1916810167ffffffffffffffff8111828210171561105057611050611011565b604052919050565b600067ffffffffffffffff82111561107257611072611011565b5060051b60200190565b600082601f83011261108d57600080fd5b81356110a061109b82611058565b611027565b8082825260208201915060208360051b8601019250858311156110c257600080fd5b602085015b838110156110df5780358352602092830192016110c7565b5095945050505050565b600080600080608085870312156110ff57600080fd5b61110885610f76565b935060208501359250604085013567ffffffffffffffff81111561112b57600080fd5b8501601f8101871361113c57600080fd5b803561114a61109b82611058565b8082825260208201915060208360051b85010192508983111561116c57600080fd5b6020840193505b828410156111955761118484610f76565b825260209384019390910190611173565b9450505050606085013567ffffffffffffffff8111156111b457600080fd5b6111c08782880161107c565b91505092959194509250565b6001600160a01b0391909116815260200190565b6000602082840312156111f257600080fd5b5051919050565b634e487b7160e01b600052601160045260246000fd5b8082018082111561062c5761062c6111f9565b808202811582820484141761062c5761062c6111f9565b60008261125657634e487b7160e01b600052601260045260246000fd5b500490565b6020808252601a908201527f496e73756666696369656e74206f757470757420616d6f756e74000000000000604082015260600190565b6001600160a01b039384168152919092166020820152604081019190915260600190565b6000602082840312156112c857600080fd5b8151801515811461100a57600080fd5b602080825260139082015272115512081d1c985b9cd9995c8819985a5b1959606a1b604082015260600190565b8181038181111561062c5761062c6111f9565b60208082526010908201526f09aeae6e840e0e4deecd2c8ca408aa8960831b604082015260600190565b602080825260159082015274151bdad95b881d1c985b9cd9995c8819985a5b1959605a1b604082015260600190565b6020808252601390820152724d7573742070726f7669646520746f6b656e7360681b604082015260600190565b634e487b7160e01b600052603260045260246000fdfea26469706673582212201cdf5525c220787c89a1dab6da0296ef0b1312e279897caea63565f9aae2bc5364736f6c634300081c0033",
  "linkReferences": {},
  "deployedLinkReferences": {}
}