{
  "_format": "hh-sol-artifact-1",
  "contractName": "LaunchpadAgent",
  "sourceName": "contracts/LaunchpadAgent.sol",
  "abi": [
    {
      "inputs": [
        {
          "internalType": "address",
          "name": "_factory",
          "type": "address"
        },
        {
          "internalType": "address",
          "name": "_agentAddress",
          "type": "address"
        }
      ],
      "stateMutability": "nonpayable",
      "type": "constructor"
    },
    {
      "anonymous": false,
      "inputs": [
        {
          "indexed": false,
          "internalType": "uint256",
          "name": "amount",
          "type": "uint256"
        }
      ],
      "name": "AgentFeeWithdrawn",
      "type": "event"
    },
    {
      "anonymous": false,
      "inputs": [
        {
          "indexed": true,
          "internalType": "address",
          "name": "user",
          "type": "address"
        },
        {
          "indexed": false,
          "internalType": "uint256",
          "name": "amount",
          "type": "uint256"
        }
      ],
      "name": "TokenCreditsAdded",
      "type": "event"
    },
    {
      "anonymous": false,
      "inputs": [
        {
          "indexed": false,
          "internalType": "string",
          "name": "twitterHandle",
          "type": "string"
        },
        {
          "indexed": false,
          "internalType": "address",
          "name": "userAddress",
          "type": "address"
        }
      ],
      "name": "TwitterHandleRegistered",
      "type": "event"
    },
    {
      "inputs": [],
      "name": "agentAddress",
      "outputs": [
        {
          "internalType": "address",
          "name": "",
          "type": "address"
        }
      ],
      "stateMutability": "view",
      "type": "function"
    },
    {
      "inputs": [],
      "name": "agentFeePercentage",
      "outputs": [
        {
          "internalType": "uint256",
          "name": "",
          "type": "uint256"
        }
      ],
      "stateMutability": "view",
      "type": "function"
    },
    {
      "inputs": [],
      "name": "buyTokenCredits",
      "outputs": [],
      "stateMutability": "payable",
      "type": "function"
    },
    {
      "inputs": [
        {
          "internalType": "address",
          "name": "userAddress",
          "type": "address"
        },
        {
          "internalType": "string",
          "name": "_name",
          "type": "string"
        },
        {
          "internalType": "string",
          "name": "_symbol",
          "type": "string"
        },
        {
          "internalType": "string",
          "name": "_metadataURI",
          "type": "string"
        }
      ],
      "name": "createTokenForUserViaAddress",
      "outputs": [],
      "stateMutability": "nonpayable",
      "type": "function"
    },
    {
      "inputs": [
        {
          "internalType": "string",
          "name": "twitterHandle",
          "type": "string"
        },
        {
          "internalType": "string",
          "name": "_name",
          "type": "string"
        },
        {
          "internalType": "string",
          "name": "_symbol",
          "type": "string"
        },
        {
          "internalType": "string",
          "name": "_metadataURI",
          "type": "string"
        }
      ],
      "name": "createTokenForUserViaTwitter",
      "outputs": [],
      "stateMutability": "nonpayable",
      "type": "function"
    },
    {
      "inputs": [],
      "name": "factory",
      "outputs": [
        {
          "internalType": "contract Factory",
          "name": "",
          "type": "address"
        }
      ],
      "stateMutability": "view",
      "type": "function"
    },
    {
      "inputs": [],
      "name": "getAgentBalance",
      "outputs": [
        {
          "internalType": "uint256",
          "name": "",
          "type": "uint256"
        }
      ],
      "stateMutability": "view",
      "type": "function"
    },
    {
      "inputs": [
        {
          "internalType": "string",
          "name": "twitterHandle",
          "type": "string"
        }
      ],
      "name": "getTwitterHandleAddress",
      "outputs": [
        {
          "internalType": "address",
          "name": "",
          "type": "address"
        }
      ],
      "stateMutability": "view",
      "type": "function"
    },
    {
      "inputs": [
        {
          "internalType": "address",
          "name": "user",
          "type": "address"
        }
      ],
      "name": "getUserTokenCredits",
      "outputs": [
        {
          "internalType": "uint256",
          "name": "",
          "type": "uint256"
        }
      ],
      "stateMutability": "view",
      "type": "function"
    },
    {
      "inputs": [],
      "name": "owner",
      "outputs": [
        {
          "internalType": "address",
          "name": "",
          "type": "address"
        }
      ],
      "stateMutability": "view",
      "type": "function"
    },
    {
      "inputs": [
        {
          "internalType": "string",
          "name": "twitterHandle",
          "type": "string"
        }
      ],
      "name": "registerTwitterHandle",
      "outputs": [],
      "stateMutability": "nonpayable",
      "type": "function"
    },
    {
      "inputs": [
        {
          "internalType": "address",
          "name": "_agentAddress",
          "type": "address"
        }
      ],
      "name": "setAgentAddress",
      "outputs": [],
      "stateMutability": "nonpayable",
      "type": "function"
    },
    {
      "inputs": [
        {
          "internalType": "uint256",
          "name": "_percentage",
          "type": "uint256"
        }
      ],
      "name": "setAgentFeePercentage",
      "outputs": [],
      "stateMutability": "nonpayable",
      "type": "function"
    },
    {
      "inputs": [
        {
          "internalType": "string",
          "name": "",
          "type": "string"
        }
      ],
      "name": "twitterToAddress",
      "outputs": [
        {
          "internalType": "address",
          "name": "",
          "type": "address"
        }
      ],
      "stateMutability": "view",
      "type": "function"
    },
    {
      "inputs": [
        {
          "internalType": "address",
          "name": "",
          "type": "address"
        }
      ],
      "name": "userTokenCredits",
      "outputs": [
        {
          "internalType": "uint256",
          "name": "",
          "type": "uint256"
        }
      ],
      "stateMutability": "view",
      "type": "function"
    },
    {
      "inputs": [],
      "name": "withdrawAgentFees",
      "outputs": [],
      "stateMutability": "nonpayable",
      "type": "function"
    },
    {
      "inputs": [
        {
          "internalType": "uint256",
          "name": "amount",
          "type": "uint256"
        }
      ],
      "name": "withdrawCredits",
      "outputs": [],
      "stateMutability": "nonpayable",
      "type": "function"
    }
  ],
  "bytecode": "0x60a0604052600560025534801561001557600080fd5b506040516111e73803806111e783398101604081905261003491610086565b6001600160a01b0391821660805260008054919092166001600160a01b03199182161790915560018054909116331790556100b9565b80516001600160a01b038116811461008157600080fd5b919050565b6000806040838503121561009957600080fd5b6100a28361006a565b91506100b06020840161006a565b90509250929050565b6080516110f76100f0600039600081816102df015281816108830152818161099d01528181610a8b0152610ba501526110f76000f3fe6080604052600436106100de5760003560e01c80637551e82e116100855780637551e82e1461021a578063895ce1851461023a5780638c8fb9241461025a5780638da5cb5b1461027a5780639fd0caa41461029a578063a30f684d146102ad578063c45a0155146102cd578063ec08598b14610301578063fd73a54b1461032e57600080fd5b806309ed1782146100e35780631ef7517e14610105578063386136901461012557806340306eab14610162578063539b7af01461017757806365841fec146101bb57806369e36beb146101c3578063713dff34146101d9575b600080fd5b3480156100ef57600080fd5b506101036100fe366004610c3e565b61034e565b005b34801561011157600080fd5b50610103610120366004610c3e565b610441565b34801561013157600080fd5b50600054610145906001600160a01b031681565b6040516001600160a01b0390911681526020015b60405180910390f35b34801561016e57600080fd5b506101036104b9565b34801561018357600080fd5b506101ad610192366004610c73565b6001600160a01b031660009081526004602052604090205490565b604051908152602001610159565b6101036105fd565b3480156101cf57600080fd5b506101ad60025481565b3480156101e557600080fd5b506101456101f4366004610d38565b80516020818301810180516003825292820191909301209152546001600160a01b031681565b34801561022657600080fd5b50610103610235366004610d38565b61069f565b34801561024657600080fd5b50610103610255366004610c73565b610764565b34801561026657600080fd5b50610145610275366004610d38565b6107fe565b34801561028657600080fd5b50600154610145906001600160a01b031681565b3480156102a657600080fd5b50476101ad565b3480156102b957600080fd5b506101036102c8366004610d74565b61082f565b3480156102d957600080fd5b506101457f000000000000000000000000000000000000000000000000000000000000000081565b34801561030d57600080fd5b506101ad61031c366004610c73565b60046020526000908152604090205481565b34801561033a57600080fd5b50610103610349366004610e16565b610a13565b336000908152600460205260409020548111156103865760405162461bcd60e51b815260040161037d90610e6a565b60405180910390fd5b33600090815260046020526040812080548392906103a5908490610eb7565b9091555050604051600090339083908381818185875af1925050503d80600081146103ec576040519150601f19603f3d011682016040523d82523d6000602084013e6103f1565b606091505b505090508061043d5760405162461bcd60e51b815260206004820152601860248201527710dc99591a5d081dda5d1a191c985dd85b0819985a5b195960421b604482015260640161037d565b5050565b6001546001600160a01b0316331461046b5760405162461bcd60e51b815260040161037d90610eca565b60148111156104b45760405162461bcd60e51b81526020600482015260156024820152744665652063616e6e6f74206578636565642032302560581b604482015260640161037d565b600255565b6000546001600160a01b031633146104e35760405162461bcd60e51b815260040161037d90610f0b565b47806105275760405162461bcd60e51b81526020600482015260136024820152724e6f206665657320746f20776974686472617760681b604482015260640161037d565b600080546040516001600160a01b039091169083908381818185875af1925050503d8060008114610574576040519150601f19603f3d011682016040523d82523d6000602084013e610579565b606091505b50509050806105c65760405162461bcd60e51b81526020600482015260196024820152781059d95b9d08199959481d1c985b9cd9995c8819985a5b1959603a1b604482015260640161037d565b6040518281527f0dcfddbde6631af22eca1fabb7c8b1eca34b4b40e6915b28cc0637e3fa264cbb9060200160405180910390a15050565b600034116106445760405162461bcd60e51b815260206004820152601460248201527326bab9ba1039b2b7321039b7b6b29032ba3432b960611b604482015260640161037d565b3360009081526004602052604081208054349290610663908490610f4c565b909155505060405134815233907fce239af2c5abdf1b761221b15fc9848786d7cb7ac029210eedab9558e24f573b9060200160405180910390a2565b60008151116106e95760405162461bcd60e51b8152602060048201526016602482015275496e76616c696420747769747465722068616e646c6560501b604482015260640161037d565b336003826040516106fa9190610f83565b90815260405190819003602001812080546001600160a01b03939093166001600160a01b0319909316929092179091557fd29a93e46d8ad723ab54071814469849c8b44ce37145ade1a669df4e8e599ad2906107599083903390610fcb565b60405180910390a150565b6001546001600160a01b0316331461078e5760405162461bcd60e51b815260040161037d90610eca565b6001600160a01b0381166107dc5760405162461bcd60e51b8152602060048201526015602482015274496e76616c6964206167656e74206164647265737360581b604482015260640161037d565b600080546001600160a01b0319166001600160a01b0392909216919091179055565b60006003826040516108109190610f83565b908152604051908190036020019020546001600160a01b031692915050565b6000546001600160a01b031633146108595760405162461bcd60e51b815260040161037d90610f0b565b6001600160a01b03841661087f5760405162461bcd60e51b815260040161037d90610ff5565b60007f00000000000000000000000000000000000000000000000000000000000000006001600160a01b031663ddca3f436040518163ffffffff1660e01b8152600401602060405180830381865afa1580156108df573d6000803e3d6000fd5b505050506040513d601f19601f82011682018060405250810190610903919061102c565b9050600061091082610c1c565b9050600061091e8284610f4c565b6001600160a01b0388166000908152600460205260409020549091508111156109595760405162461bcd60e51b815260040161037d90610e6a565b6001600160a01b03871660009081526004602052604081208054839290610981908490610eb7565b9091555050604051632e942b0560e11b81526001600160a01b037f00000000000000000000000000000000000000000000000000000000000000001690635d28560a9085906109d8908a908a908a90600401611045565b6000604051808303818588803b1580156109f157600080fd5b505af1158015610a05573d6000803e3d6000fd5b505050505050505050505050565b6000546001600160a01b03163314610a3d5760405162461bcd60e51b815260040161037d90610f0b565b6000600385604051610a4f9190610f83565b908152604051908190036020019020546001600160a01b0316905080610a875760405162461bcd60e51b815260040161037d90610ff5565b60007f00000000000000000000000000000000000000000000000000000000000000006001600160a01b031663ddca3f436040518163ffffffff1660e01b8152600401602060405180830381865afa158015610ae7573d6000803e3d6000fd5b505050506040513d601f19601f82011682018060405250810190610b0b919061102c565b90506000610b1882610c1c565b90506000610b268284610f4c565b6001600160a01b038516600090815260046020526040902054909150811115610b615760405162461bcd60e51b815260040161037d90610e6a565b6001600160a01b03841660009081526004602052604081208054839290610b89908490610eb7565b9091555050604051632e942b0560e11b81526001600160a01b037f00000000000000000000000000000000000000000000000000000000000000001690635d28560a908590610be0908b908b908b90600401611045565b6000604051808303818588803b158015610bf957600080fd5b505af1158015610c0d573d6000803e3d6000fd5b50505050505050505050505050565b6000606460025483610c2e9190611088565b610c38919061109f565b92915050565b600060208284031215610c5057600080fd5b5035919050565b80356001600160a01b0381168114610c6e57600080fd5b919050565b600060208284031215610c8557600080fd5b610c8e82610c57565b9392505050565b634e487b7160e01b600052604160045260246000fd5b600082601f830112610cbc57600080fd5b81356001600160401b03811115610cd557610cd5610c95565b604051601f8201601f19908116603f011681016001600160401b0381118282101715610d0357610d03610c95565b604052818152838201602001851015610d1b57600080fd5b816020850160208301376000918101602001919091529392505050565b600060208284031215610d4a57600080fd5b81356001600160401b03811115610d6057600080fd5b610d6c84828501610cab565b949350505050565b60008060008060808587031215610d8a57600080fd5b610d9385610c57565b935060208501356001600160401b03811115610dae57600080fd5b610dba87828801610cab565b93505060408501356001600160401b03811115610dd657600080fd5b610de287828801610cab565b92505060608501356001600160401b03811115610dfe57600080fd5b610e0a87828801610cab565b91505092959194509250565b60008060008060808587031215610e2c57600080fd5b84356001600160401b03811115610e4257600080fd5b610e4e87828801610cab565b94505060208501356001600160401b03811115610dae57600080fd5b6020808252601a908201527f496e73756666696369656e7420746f6b656e2063726564697473000000000000604082015260600190565b634e487b7160e01b600052601160045260246000fd5b81810381811115610c3857610c38610ea1565b60208082526021908201527f4f6e6c79206f776e65722063616e2063616c6c20746869732066756e6374696f6040820152603760f91b606082015260800190565b60208082526021908201527f4f6e6c79206167656e742063616e2063616c6c20746869732066756e6374696f6040820152603760f91b606082015260800190565b80820180821115610c3857610c38610ea1565b60005b83811015610f7a578181015183820152602001610f62565b50506000910152565b60008251610f95818460208701610f5f565b9190910192915050565b60008151808452610fb7816020860160208601610f5f565b601f01601f19169290920160200192915050565b604081526000610fde6040830185610f9f565b905060018060a01b03831660208301529392505050565b6020808252601d908201527f547769747465722068616e646c65206e6f742072656769737465726564000000604082015260600190565b60006020828403121561103e57600080fd5b5051919050565b6060815260006110586060830186610f9f565b828103602084015261106a8186610f9f565b9050828103604084015261107e8185610f9f565b9695505050505050565b8082028115828204841417610c3857610c38610ea1565b6000826110bc57634e487b7160e01b600052601260045260246000fd5b50049056fea2646970667358221220f3f56c05838d5a7421d908f8d9cd6b17dcd9fdeda330be6b99d13790c4f03edc64736f6c634300081c0033",
  "linkReferences": {},
  "deployedLinkReferences": {}
}