{
  "_format": "hh-sol-artifact-1",
  "contractName": "Factory",
  "sourceName": "contracts/Factory.sol",
  "abi": [
    {
      "inputs": [
        {
          "internalType": "uint256",
          "name": "_fee",
          "type": "uint256"
        }
      ],
      "stateMutability": "nonpayable",
      "type": "constructor"
    },
    {
      "anonymous": false,
      "inputs": [
        {
          "indexed": true,
          "internalType": "address",
          "name": "token",
          "type": "address"
        }
      ],
      "name": "Created",
      "type": "event"
    },
    {
      "anonymous": false,
      "inputs": [
        {
          "indexed": true,
          "internalType": "address",
          "name": "user",
          "type": "address"
        },
        {
          "indexed": true,
          "internalType": "address",
          "name": "token",
          "type": "address"
        },
        {
          "indexed": false,
          "internalType": "uint256",
          "name": "amount",
          "type": "uint256"
        }
      ],
      "name": "RewardClaimed",
      "type": "event"
    },
    {
      "inputs": [],
      "name": "TARGET",
      "outputs": [
        {
          "internalType": "uint256",
          "name": "",
          "type": "uint256"
        }
      ],
      "stateMutability": "view",
      "type": "function"
    },
    {
      "inputs": [],
      "name": "TOKEN_LIMIT",
      "outputs": [
        {
          "internalType": "uint256",
          "name": "",
          "type": "uint256"
        }
      ],
      "stateMutability": "view",
      "type": "function"
    },
    {
      "inputs": [
        {
          "internalType": "address",
          "name": "_token",
          "type": "address"
        },
        {
          "internalType": "uint256",
          "name": "_amount",
          "type": "uint256"
        }
      ],
      "name": "buy",
      "outputs": [],
      "stateMutability": "payable",
      "type": "function"
    },
    {
      "inputs": [
        {
          "internalType": "address",
          "name": "_token",
          "type": "address"
        }
      ],
      "name": "claimReward",
      "outputs": [],
      "stateMutability": "nonpayable",
      "type": "function"
    },
    {
      "inputs": [
        {
          "internalType": "string",
          "name": "_name",
          "type": "string"
        },
        {
          "internalType": "string",
          "name": "_symbol",
          "type": "string"
        },
        {
          "internalType": "string",
          "name": "_metadataURI",
          "type": "string"
        },
        {
          "internalType": "address",
          "name": "_creator",
          "type": "address"
        }
      ],
      "name": "create",
      "outputs": [],
      "stateMutability": "payable",
      "type": "function"
    },
    {
      "inputs": [],
      "name": "fee",
      "outputs": [
        {
          "internalType": "uint256",
          "name": "",
          "type": "uint256"
        }
      ],
      "stateMutability": "view",
      "type": "function"
    },
    {
      "inputs": [
        {
          "internalType": "address",
          "name": "_token",
          "type": "address"
        }
      ],
      "name": "getContributors",
      "outputs": [
        {
          "internalType": "address[]",
          "name": "",
          "type": "address[]"
        },
        {
          "internalType": "uint256[]",
          "name": "",
          "type": "uint256[]"
        }
      ],
      "stateMutability": "view",
      "type": "function"
    },
    {
      "inputs": [
        {
          "internalType": "uint256",
          "name": "_sold",
          "type": "uint256"
        }
      ],
      "name": "getCost",
      "outputs": [
        {
          "internalType": "uint256",
          "name": "",
          "type": "uint256"
        }
      ],
      "stateMutability": "pure",
      "type": "function"
    },
    {
      "inputs": [
        {
          "internalType": "address",
          "name": "_token",
          "type": "address"
        },
        {
          "internalType": "uint256",
          "name": "_amount",
          "type": "uint256"
        }
      ],
      "name": "getPriceForTokens",
      "outputs": [
        {
          "internalType": "uint256",
          "name": "",
          "type": "uint256"
        }
      ],
      "stateMutability": "view",
      "type": "function"
    },
    {
      "inputs": [
        {
          "internalType": "uint256",
          "name": "_index",
          "type": "uint256"
        }
      ],
      "name": "getTokenSale",
      "outputs": [
        {
          "components": [
            {
              "internalType": "address",
              "name": "token",
              "type": "address"
            },
            {
              "internalType": "string",
              "name": "name",
              "type": "string"
            },
            {
              "internalType": "string",
              "name": "metadataURI",
              "type": "string"
            },
            {
              "internalType": "address",
              "name": "creator",
              "type": "address"
            },
            {
              "internalType": "uint256",
              "name": "sold",
              "type": "uint256"
            },
            {
              "internalType": "uint256",
              "name": "raised",
              "type": "uint256"
            },
            {
              "internalType": "bool",
              "name": "isOpen",
              "type": "bool"
            },
            {
              "internalType": "bool",
              "name": "isLiquidityCreated",
              "type": "bool"
            }
          ],
          "internalType": "struct Factory.TokenSale",
          "name": "",
          "type": "tuple"
        }
      ],
      "stateMutability": "view",
      "type": "function"
    },
    {
      "inputs": [
        {
          "internalType": "address",
          "name": "",
          "type": "address"
        },
        {
          "internalType": "address",
          "name": "",
          "type": "address"
        }
      ],
      "name": "hasClaimedReward",
      "outputs": [
        {
          "internalType": "bool",
          "name": "",
          "type": "bool"
        }
      ],
      "stateMutability": "view",
      "type": "function"
    },
    {
      "inputs": [],
      "name": "nativeLiquidityPool",
      "outputs": [
        {
          "internalType": "contract NativeLiquidityPool",
          "name": "",
          "type": "address"
        }
      ],
      "stateMutability": "view",
      "type": "function"
    },
    {
      "inputs": [],
      "name": "owner",
      "outputs": [
        {
          "internalType": "address",
          "name": "",
          "type": "address"
        }
      ],
      "stateMutability": "view",
      "type": "function"
    },
    {
      "inputs": [
        {
          "internalType": "address",
          "name": "_liquidityPool",
          "type": "address"
        }
      ],
      "name": "setLiquidityPool",
      "outputs": [],
      "stateMutability": "nonpayable",
      "type": "function"
    },
    {
      "inputs": [
        {
          "internalType": "address",
          "name": "",
          "type": "address"
        },
        {
          "internalType": "uint256",
          "name": "",
          "type": "uint256"
        }
      ],
      "name": "tokenContributors",
      "outputs": [
        {
          "internalType": "address",
          "name": "",
          "type": "address"
        }
      ],
      "stateMutability": "view",
      "type": "function"
    },
    {
      "inputs": [
        {
          "internalType": "address",
          "name": "",
          "type": "address"
        }
      ],
      "name": "tokenToSale",
      "outputs": [
        {
          "internalType": "address",
          "name": "token",
          "type": "address"
        },
        {
          "internalType": "string",
          "name": "name",
          "type": "string"
        },
        {
          "internalType": "string",
          "name": "metadataURI",
          "type": "string"
        },
        {
          "internalType": "address",
          "name": "creator",
          "type": "address"
        },
        {
          "internalType": "uint256",
          "name": "sold",
          "type": "uint256"
        },
        {
          "internalType": "uint256",
          "name": "raised",
          "type": "uint256"
        },
        {
          "internalType": "bool",
          "name": "isOpen",
          "type": "bool"
        },
        {
          "internalType": "bool",
          "name": "isLiquidityCreated",
          "type": "bool"
        }
      ],
      "stateMutability": "view",
      "type": "function"
    },
    {
      "inputs": [
        {
          "internalType": "uint256",
          "name": "",
          "type": "uint256"
        }
      ],
      "name": "tokens",
      "outputs": [
        {
          "internalType": "address",
          "name": "",
          "type": "address"
        }
      ],
      "stateMutability": "view",
      "type": "function"
    },
    {
      "inputs": [],
      "name": "totalTokens",
      "outputs": [
        {
          "internalType": "uint256",
          "name": "",
          "type": "uint256"
        }
      ],
      "stateMutability": "view",
      "type": "function"
    },
    {
      "inputs": [
        {
          "internalType": "address",
          "name": "",
          "type": "address"
        },
        {
          "internalType": "address",
          "name": "",
          "type": "address"
        }
      ],
      "name": "userEthContributions",
      "outputs": [
        {
          "internalType": "uint256",
          "name": "",
          "type": "uint256"
        }
      ],
      "stateMutability": "view",
      "type": "function"
    },
    {
      "inputs": [
        {
          "internalType": "address",
          "name": "",
          "type": "address"
        },
        {
          "internalType": "address",
          "name": "",
          "type": "address"
        }
      ],
      "name": "userTokenContributions",
      "outputs": [
        {
          "internalType": "uint256",
          "name": "",
          "type": "uint256"
        }
      ],
      "stateMutability": "view",
      "type": "function"
    },
    {
      "inputs": [
        {
          "internalType": "uint256",
          "name": "_amount",
          "type": "uint256"
        }
      ],
      "name": "withdraw",
      "outputs": [],
      "stateMutability": "nonpayable",
      "type": "function"
    }
  ],
  "bytecode": "0x60a0604052348015600f57600080fd5b50604051612d41380380612d41833981016040819052602c916045565b608052600080546001600160a01b03191633179055605d565b600060208284031215605657600080fd5b5051919050565b608051612cc261007f6000396000818161042e01526109c00152612cc26000f3fe60806040526004361061012a5760003560e01c80637e1c0c09116100ab578063cc1f2afa1161006f578063cc1f2afa146103ad578063cce7ec13146103c9578063d279c191146103dc578063d8bc3c80146103fc578063ddca3f431461041c578063e11a0bd81461045057600080fd5b80637e1c0c09146102e557806382cbdc0f146102fb5780638da5cb5b1461030e5780639aaa546c1461032e5780639c0ad5ed1461037957600080fd5b806343e9658c116100f257806343e9658c1461020757806347fb20fd146102355780634f64b2be1461026d5780635a4dd47d1461028d578063764394a0146102ad57600080fd5b8063018770201461012f578063031bd4c414610151578063036e8cab146101825780631fbc147b146101ba5780632e1a7d4d146101e7575b600080fd5b34801561013b57600080fd5b5061014f61014a3660046116b1565b610470565b005b34801561015d57600080fd5b5061016f6969e10de76676d080000081565b6040519081526020015b60405180910390f35b34801561018e57600080fd5b506008546101a2906001600160a01b031681565b6040516001600160a01b039091168152602001610179565b3480156101c657600080fd5b506101da6101d53660046116d3565b6104c5565b6040516101799190611732565b3480156101f357600080fd5b5061014f6102023660046116d3565b610733565b34801561021357600080fd5b506102276102223660046116b1565b610804565b604051610179929190611852565b34801561024157600080fd5b5061016f610250366004611877565b600460209081526000928352604080842090915290825290205481565b34801561027957600080fd5b506101a26102883660046116d3565b610955565b34801561029957600080fd5b5061016f6102a83660046116d3565b61097f565b3480156102b957600080fd5b5061016f6102c8366004611877565b600560209081526000928352604080842090915290825290205481565b3480156102f157600080fd5b5061016f60015481565b61014f61030936600461194d565b6109be565b34801561031a57600080fd5b506000546101a2906001600160a01b031681565b34801561033a57600080fd5b50610369610349366004611877565b600660209081526000928352604080842090915290825290205460ff1681565b6040519015158152602001610179565b34801561038557600080fd5b506103996103943660046116b1565b610c19565b6040516101799897969594939291906119ef565b3480156103b957600080fd5b5061016f6729a2241af62c000081565b61014f6103d7366004611a5f565b610d85565b3480156103e857600080fd5b5061014f6103f73660046116b1565b61106a565b34801561040857600080fd5b506101a2610417366004611a5f565b6112c5565b34801561042857600080fd5b5061016f7f000000000000000000000000000000000000000000000000000000000000000081565b34801561045c57600080fd5b5061016f61046b366004611a5f565b6112fd565b6000546001600160a01b031633146104a35760405162461bcd60e51b815260040161049a90611a89565b60405180910390fd5b600880546001600160a01b0319166001600160a01b0392909216919091179055565b61052360405180610100016040528060006001600160a01b03168152602001606081526020016060815260200160006001600160a01b0316815260200160008152602001600081526020016000151581526020016000151581525090565b600254821061056a5760405162461bcd60e51b8152602060048201526013602482015272496e646578206f7574206f6620626f756e647360681b604482015260640161049a565b600360006002848154811061058157610581611aca565b60009182526020808320909101546001600160a01b0390811684528382019490945260409283019091208251610100810190935280549093168252600183018054929392918401916105d290611ae0565b80601f01602080910402602001604051908101604052809291908181526020018280546105fe90611ae0565b801561064b5780601f106106205761010080835404028352916020019161064b565b820191906000526020600020905b81548152906001019060200180831161062e57829003601f168201915b5050505050815260200160028201805461066490611ae0565b80601f016020809104026020016040519081016040528092919081815260200182805461069090611ae0565b80156106dd5780601f106106b2576101008083540402835291602001916106dd565b820191906000526020600020905b8154815290600101906020018083116106c057829003601f168201915b505050918352505060038201546001600160a01b03166020820152600482015460408201526005820154606082015260069091015460ff8082161515608084015261010090910416151560a09091015292915050565b6000546001600160a01b0316331461075d5760405162461bcd60e51b815260040161049a90611a89565b600080546040516001600160a01b039091169083908381818185875af1925050503d80600081146107aa576040519150601f19603f3d011682016040523d82523d6000602084013e6107af565b606091505b50509050806108005760405162461bcd60e51b815260206004820152601c60248201527f466163746f72793a20455448207472616e73666572206661696c656400000000604482015260640161049a565b5050565b6001600160a01b038116600090815260076020908152604080832080548251818502810185019093528083526060948594909392919083018282801561087357602002820191906000526020600020905b81546001600160a01b03168152600190910190602001808311610855575b50505050509050600081516001600160401b03811115610895576108956118aa565b6040519080825280602002602001820160405280156108be578160200160208202803683370190505b50905060005b825181101561094a576001600160a01b038616600090815260056020526040812084519091908590849081106108fc576108fc611aca565b60200260200101516001600160a01b03166001600160a01b031681526020019081526020016000205482828151811061093757610937611aca565b60209081029190910101526001016108c4565b509094909350915050565b6002818154811061096557600080fd5b6000918252602090912001546001600160a01b0316905081565b6000655af3107a40008069021e19e0c9bab240000083826109a08388611b30565b6109aa9085611b52565b6109b49190611b69565b9695505050505050565b7f0000000000000000000000000000000000000000000000000000000000000000341015610a245760405162461bcd60e51b815260206004820152601360248201527210dc99585d1bdc88199959481b9bdd081b595d606a1b604482015260640161049a565b6001600160a01b038116610a355750335b60008185858569d3c21bcecceda1000000604051610a5290611688565b610a60959493929190611b7c565b604051809103906000f080158015610a7c573d6000803e3d6000fd5b50600280546001808201835560009283527f405787fa12a823e0f2b7631cc41b3ba8828b3321ca811111fa75cd3aa3bb5ace90910180546001600160a01b0319166001600160a01b038516179055805492935090610ad983611bd9565b909155505060408051610100810182526001600160a01b0383811680835260208084018a8152848601899052878416606086015260006080860181905260a08601819052600160c0870181905260e087018290529381526003909252949020835181546001600160a01b031916931692909217825592519192839290820190610b629082611c41565b5060408201516002820190610b779082611c41565b5060608201516003820180546001600160a01b0319166001600160a01b039283161790556080830151600483015560a0830151600583015560c08301516006909201805460e09094015161ffff1990941692151561ff0019169290921761010093151593909302929092179055604051908316907f1449abf21e49fd025f33495e77f7b1461caefdd3d4bb646424a3f445c4576a5b90600090a2505050505050565b600360205260009081526040902080546001820180546001600160a01b039092169291610c4590611ae0565b80601f0160208091040260200160405190810160405280929190818152602001828054610c7190611ae0565b8015610cbe5780601f10610c9357610100808354040283529160200191610cbe565b820191906000526020600020905b815481529060010190602001808311610ca157829003601f168201915b505050505090806002018054610cd390611ae0565b80601f0160208091040260200160405190810160405280929190818152602001828054610cff90611ae0565b8015610d4c5780601f10610d2157610100808354040283529160200191610d4c565b820191906000526020600020905b815481529060010190602001808311610d2f57829003601f168201915b5050505060038301546004840154600585015460069095015493946001600160a01b039092169390925060ff8082169161010090041688565b6001600160a01b038083166000908152600360205260409020805490911615801590610db55750600681015460ff165b610dd15760405162461bcd60e51b815260040161049a90611cff565b670de0b6b3a76400008210158015610df3575069021e19e0c9bab24000008211155b610e0f5760405162461bcd60e51b815260040161049a90611d23565b6000610e23670de0b6b3a764000084611b30565b610e30836004015461097f565b610e3a9190611b52565b905080341015610e885760405162461bcd60e51b8152602060048201526019602482015278125b9cdd59999a58da595b9d08115512081c9958d95a5d9959603a1b604482015260640161049a565b6001600160a01b03841660009081526004602090815260408083203384529091528120549003610eeb576001600160a01b03841660009081526007602090815260408220805460018101825590835291200180546001600160a01b031916331790555b6001600160a01b038416600090815260046020908152604080832033845290915281208054859290610f1e908490611b69565b90915550506001600160a01b038416600090815260056020908152604080832033845290915281208054349290610f56908490611b69565b909155505060405163a9059cbb60e01b81526001600160a01b0385169063a9059cbb90610f899033908790600401611d44565b6020604051808303816000875af1158015610fa8573d6000803e3d6000fd5b505050506040513d601f19601f82011682018060405250810190610fcc9190611d5d565b5082826004016000828254610fe19190611b69565b9250508190555034826005016000828254610ffc9190611b69565b909155505060048201546969e10de76676d080000011158061102a57506729a2241af62c0000826005015410155b156110645760068201805460ff191690819055610100900460ff1661106457611052846113aa565b60068201805461ff0019166101001790555b50505050565b6001600160a01b038116600090815260036020526040902060060154610100900460ff166110d65760405162461bcd60e51b8152602060048201526019602482015278131a5c5d5a591a5d1e481b9bdd0818dc99585d1959081e595d603a1b604482015260640161049a565b6001600160a01b038116600090815260066020908152604080832033845290915290205460ff16156111435760405162461bcd60e51b815260206004820152601660248201527514995dd85c9908185b1c9958591e4818db185a5b595960521b604482015260640161049a565b6001600160a01b03811660009081526004602090815260408083203384529091529020546111ab5760405162461bcd60e51b8152602060048201526015602482015274139bc818dbdb9d1c9a589d5d1a5bdb88199bdd5b99605a1b604482015260640161049a565b60006111b78233611585565b9050600081116111ff5760405162461bcd60e51b81526020600482015260136024820152724e6f2072657761726420617661696c61626c6560681b604482015260640161049a565b6001600160a01b038216600081815260066020908152604080832033808552925291829020805460ff1916600117905590516340c10f1960e01b81526340c10f199161124f918590600401611d44565b600060405180830381600087803b15801561126957600080fd5b505af115801561127d573d6000803e3d6000fd5b50506040518381526001600160a01b03851692503391507f0aa4d283470c904c551d18bb894d37e17674920f3261a7f854be501e25f421b79060200160405180910390a35050565b600760205281600052604060002081815481106112e157600080fd5b6000918252602090912001546001600160a01b03169150829050565b6001600160a01b0382166000908152600360205260408120670de0b6b3a76400008310801590611337575069021e19e0c9bab24000008311155b6113535760405162461bcd60e51b815260040161049a90611d23565b600681015460ff166113775760405162461bcd60e51b815260040161049a90611cff565b611389670de0b6b3a764000084611b30565b611396826004015461097f565b6113a09190611b52565b9150505b92915050565b6001600160a01b03811660009081526003602052604090206006810154610100900460ff16156114185760405162461bcd60e51b8152602060048201526019602482015278131a5c5d5a591a5d1e48185b1c9958591e4818dc99585d1959603a1b604482015260640161049a565b6040516370a0823160e01b815230600482015282906000906001600160a01b038316906370a0823190602401602060405180830381865afa158015611461573d6000803e3d6000fd5b505050506040513d601f19601f820116820180604052508101906114859190611d7f565b905060008061149386610804565b60085460405163095ea7b360e01b81529294509092506001600160a01b038087169263095ea7b3926114cb9216908790600401611d44565b6020604051808303816000875af11580156114ea573d6000803e3d6000fd5b505050506040513d601f19601f8201168201806040525081019061150e9190611d5d565b5060085460058601546040516358c76a2360e11b81526001600160a01b039092169163b18ed446919061154b908a90889088908890600401611d98565b6000604051808303818588803b15801561156457600080fd5b505af1158015611578573d6000803e3d6000fd5b5050505050505050505050565b6001600160a01b038216600090815260036020526040812060060154610100900460ff1615806115da57506001600160a01b0380841660009081526006602090815260408083209386168352929052205460ff165b8061160857506001600160a01b03808416600090815260046020908152604080832093861683529290522054155b15611615575060006113a4565b6001600160a01b0380841660008181526004602081815260408084209588168452948152848320549383526003905292902091820154909190611659906064611b52565b826003836005015461166b9190611b52565b6116759190611b52565b61167f9190611b30565b95945050505050565b610eb080611ddd83390190565b80356001600160a01b03811681146116ac57600080fd5b919050565b6000602082840312156116c357600080fd5b6116cc82611695565b9392505050565b6000602082840312156116e557600080fd5b5035919050565b6000815180845260005b81811015611712576020818501810151868301820152016116f6565b506000602082860101526020601f19601f83011685010191505092915050565b602080825282516001600160a01b03168282015282015161010060408301526000906117626101208401826116ec565b90506040840151601f1984830301606085015261177f82826116ec565b915050606084015161179c60808501826001600160a01b03169052565b50608084015160a084015260a084015160c084015260c08401516117c460e085018215159052565b5060e0840151801515610100850152509392505050565b600081518084526020840193506020830160005b828110156118165781516001600160a01b03168652602095860195909101906001016117ef565b5093949350505050565b600081518084526020840193506020830160005b82811015611816578151865260209586019590910190600101611834565b60408152600061186560408301856117db565b828103602084015261167f8185611820565b6000806040838503121561188a57600080fd5b61189383611695565b91506118a160208401611695565b90509250929050565b634e487b7160e01b600052604160045260246000fd5b600082601f8301126118d157600080fd5b81356001600160401b038111156118ea576118ea6118aa565b604051601f8201601f19908116603f011681016001600160401b0381118282101715611918576119186118aa565b60405281815283820160200185101561193057600080fd5b816020850160208301376000918101602001919091529392505050565b6000806000806080858703121561196357600080fd5b84356001600160401b0381111561197957600080fd5b611985878288016118c0565b94505060208501356001600160401b038111156119a157600080fd5b6119ad878288016118c0565b93505060408501356001600160401b038111156119c957600080fd5b6119d5878288016118c0565b9250506119e460608601611695565b905092959194509250565b6001600160a01b038916815261010060208201819052600090611a149083018a6116ec565b8281036040840152611a26818a6116ec565b6001600160a01b039890981660608401525050608081019490945260a0840192909252151560c0830152151560e0909101529392505050565b60008060408385031215611a7257600080fd5b611a7b83611695565b946020939093013593505050565b60208082526021908201527f4f6e6c79206f776e65722063616e2063616c6c20746869732066756e6374696f6040820152603760f91b606082015260800190565b634e487b7160e01b600052603260045260246000fd5b600181811c90821680611af457607f821691505b602082108103611b1457634e487b7160e01b600052602260045260246000fd5b50919050565b634e487b7160e01b600052601160045260246000fd5b600082611b4d57634e487b7160e01b600052601260045260246000fd5b500490565b80820281158282048414176113a4576113a4611b1a565b808201808211156113a4576113a4611b1a565b6001600160a01b038616815260a060208201819052600090611ba0908301876116ec565b8281036040840152611bb281876116ec565b90508281036060840152611bc681866116ec565b9150508260808301529695505050505050565b600060018201611beb57611beb611b1a565b5060010190565b601f821115611c3c57806000526020600020601f840160051c81016020851015611c195750805b601f840160051c820191505b81811015611c395760008155600101611c25565b50505b505050565b81516001600160401b03811115611c5a57611c5a6118aa565b611c6e81611c688454611ae0565b84611bf2565b6020601f821160018114611ca25760008315611c8a5750848201515b600019600385901b1c1916600184901b178455611c39565b600084815260208120601f198516915b82811015611cd25787850151825560209485019460019092019101611cb2565b5084821015611cf05786840151600019600387901b60f8161c191681555b50505050600190811b01905550565b6020808252600a908201526921617661696c61626c6560b01b604082015260600190565b60208082526007908201526608585b5bdd5b9d60ca1b604082015260600190565b6001600160a01b03929092168252602082015260400190565b600060208284031215611d6f57600080fd5b815180151581146116cc57600080fd5b600060208284031215611d9157600080fd5b5051919050565b60018060a01b0385168152836020820152608060408201526000611dbf60808301856117db565b8281036060840152611dd18185611820565b97965050505050505056fe608060405234801561001057600080fd5b50604051610eb0380380610eb083398101604081905261002f916102b9565b8383600361003d8382610403565b50600461004a8282610403565b505060058054336001600160a01b031991821617909155600680549091166001600160a01b0388161790555060076100828382610403565b5061008d3382610097565b50505050506104e8565b6001600160a01b0382166100c65760405163ec442f0560e01b8152600060048201526024015b60405180910390fd5b6100d2600083836100d6565b5050565b6001600160a01b0383166101015780600260008282546100f691906104c1565b909155506101739050565b6001600160a01b038316600090815260208190526040902054818110156101545760405163391434e360e21b81526001600160a01b038516600482015260248101829052604481018390526064016100bd565b6001600160a01b03841660009081526020819052604090209082900390555b6001600160a01b03821661018f576002805482900390556101ae565b6001600160a01b03821660009081526020819052604090208054820190555b816001600160a01b0316836001600160a01b03167fddf252ad1be2c89b69c2b068fc378daa952ba7f163c4a11628f55a4df523b3ef836040516101f391815260200190565b60405180910390a3505050565b634e487b7160e01b600052604160045260246000fd5b600082601f83011261022757600080fd5b81516001600160401b0381111561024057610240610200565b604051601f8201601f19908116603f011681016001600160401b038111828210171561026e5761026e610200565b60405281815283820160200185101561028657600080fd5b60005b828110156102a557602081860181015183830182015201610289565b506000918101602001919091529392505050565b600080600080600060a086880312156102d157600080fd5b85516001600160a01b03811681146102e857600080fd5b60208701519095506001600160401b0381111561030457600080fd5b61031088828901610216565b604088015190955090506001600160401b0381111561032e57600080fd5b61033a88828901610216565b606088015190945090506001600160401b0381111561035857600080fd5b61036488828901610216565b6080979097015195989497509295949392505050565b600181811c9082168061038e57607f821691505b6020821081036103ae57634e487b7160e01b600052602260045260246000fd5b50919050565b601f8211156103fe57806000526020600020601f840160051c810160208510156103db5750805b601f840160051c820191505b818110156103fb57600081556001016103e7565b50505b505050565b81516001600160401b0381111561041c5761041c610200565b6104308161042a845461037a565b846103b4565b6020601f821160018114610464576000831561044c5750848201515b600019600385901b1c1916600184901b1784556103fb565b600084815260208120601f198516915b828110156104945787850151825560209485019460019092019101610474565b50848210156104b25786840151600019600387901b60f8161c191681555b50505050600190811b01905550565b808201808211156104e257634e487b7160e01b600052601160045260246000fd5b92915050565b6109b9806104f76000396000f3fe608060405234801561001057600080fd5b50600436106100ca5760003560e01c806340c10f191161007c57806340c10f191461016c57806370a08231146101815780638da5cb5b146101aa57806395d89b41146101bd578063a9059cbb146101c5578063dd62ed3e146101d8578063fcd3533c146101eb57600080fd5b806302d05d3f146100cf57806303ee438c146100f857806306fdde031461010d578063095ea7b31461011557806318160ddd1461013857806323b872dd1461014a578063313ce5671461015d575b600080fd5b6006546100e2906001600160a01b031681565b6040516100ef91906107aa565b60405180910390f35b6101006101fe565b6040516100ef91906107be565b61010061028c565b610128610123366004610828565b61031e565b60405190151581526020016100ef565b6002545b6040519081526020016100ef565b610128610158366004610852565b610338565b604051601281526020016100ef565b61017f61017a366004610828565b61035c565b005b61013c61018f36600461088f565b6001600160a01b031660009081526020819052604090205490565b6005546100e2906001600160a01b031681565b6101006103d5565b6101286101d3366004610828565b6103e4565b61013c6101e63660046108b1565b6103f2565b61017f6101f93660046108e4565b61041d565b6007805461020b90610907565b80601f016020809104026020016040519081016040528092919081815260200182805461023790610907565b80156102845780601f1061025957610100808354040283529160200191610284565b820191906000526020600020905b81548152906001019060200180831161026757829003601f168201915b505050505081565b60606003805461029b90610907565b80601f01602080910402602001604051908101604052809291908181526020018280546102c790610907565b80156103145780601f106102e957610100808354040283529160200191610314565b820191906000526020600020905b8154815290600101906020018083116102f757829003601f168201915b5050505050905090565b60003361032c81858561048d565b60019150505b92915050565b60003361034685828561049f565b6103518585856104f3565b506001949350505050565b6005546001600160a01b031633146103c75760405162461bcd60e51b8152602060048201526024808201527f4d696e742063616e206f6e6c792062652063616c6c656420627920746865206f6044820152633bb732b960e11b60648201526084015b60405180910390fd5b6103d18282610552565b5050565b60606004805461029b90610907565b60003361032c8185856104f3565b6001600160a01b03918216600090815260016020908152604080832093909416825291909152205490565b6005546001600160a01b031633146104835760405162461bcd60e51b8152602060048201526024808201527f4275726e2063616e206f6e6c792062652063616c6c656420627920746865206f6044820152633bb732b960e11b60648201526084016103be565b6103d18183610588565b61049a83838360016105be565b505050565b60006104ab84846103f2565b90506000198110156104ed57818110156104de57828183604051637dc7a0d960e11b81526004016103be93929190610941565b6104ed848484840360006105be565b50505050565b6001600160a01b03831661051d576000604051634b637e8f60e11b81526004016103be91906107aa565b6001600160a01b03821661054757600060405163ec442f0560e01b81526004016103be91906107aa565b61049a838383610693565b6001600160a01b03821661057c57600060405163ec442f0560e01b81526004016103be91906107aa565b6103d160008383610693565b6001600160a01b0382166105b2576000604051634b637e8f60e11b81526004016103be91906107aa565b6103d182600083610693565b6001600160a01b0384166105e857600060405163e602df0560e01b81526004016103be91906107aa565b6001600160a01b038316610612576000604051634a1406b160e11b81526004016103be91906107aa565b6001600160a01b03808516600090815260016020908152604080832093871683529290522082905580156104ed57826001600160a01b0316846001600160a01b03167f8c5be1e5ebec7d5bd14f71427d1e84f3dd0314c0f7b2291e5b200ac8c7c3b9258460405161068591815260200190565b60405180910390a350505050565b6001600160a01b0383166106be5780600260008282546106b39190610962565b9091555061071d9050565b6001600160a01b038316600090815260208190526040902054818110156106fe5783818360405163391434e360e21b81526004016103be93929190610941565b6001600160a01b03841660009081526020819052604090209082900390555b6001600160a01b03821661073957600280548290039055610758565b6001600160a01b03821660009081526020819052604090208054820190555b816001600160a01b0316836001600160a01b03167fddf252ad1be2c89b69c2b068fc378daa952ba7f163c4a11628f55a4df523b3ef8360405161079d91815260200190565b60405180910390a3505050565b6001600160a01b0391909116815260200190565b602081526000825180602084015260005b818110156107ec57602081860181015160408684010152016107cf565b506000604082850101526040601f19601f83011684010191505092915050565b80356001600160a01b038116811461082357600080fd5b919050565b6000806040838503121561083b57600080fd5b6108448361080c565b946020939093013593505050565b60008060006060848603121561086757600080fd5b6108708461080c565b925061087e6020850161080c565b929592945050506040919091013590565b6000602082840312156108a157600080fd5b6108aa8261080c565b9392505050565b600080604083850312156108c457600080fd5b6108cd8361080c565b91506108db6020840161080c565b90509250929050565b600080604083850312156108f757600080fd5b823591506108db6020840161080c565b600181811c9082168061091b57607f821691505b60208210810361093b57634e487b7160e01b600052602260045260246000fd5b50919050565b6001600160a01b039390931683526020830191909152604082015260600190565b8082018082111561033257634e487b7160e01b600052601160045260246000fdfea2646970667358221220aa50b3f826b5682623d5a452bbd1cc2623791092c4dd2af3832fc2f8f43ac6b864736f6c634300081c0033a26469706673582212202240be0baf3ccae197481a712c4e0ffe2c881431e7ff608a450f38a2f4e71c2264736f6c634300081c0033",
  "linkReferences": {},
  "deployedLinkReferences": {}
}