{
  "_format": "hh-sol-artifact-1",
  "contractName": "LaunchpadAgent",
  "sourceName": "contracts/LaunchpadAgent.sol",
  "abi": [
    {
      "inputs": [
        {
          "internalType": "address",
          "name": "_factory",
          "type": "address"
        },
        {
          "internalType": "address",
          "name": "_agentAddress",
          "type": "address"
        }
      ],
      "stateMutability": "nonpayable",
      "type": "constructor"
    },
    {
      "anonymous": false,
      "inputs": [
        {
          "indexed": false,
          "internalType": "uint256",
          "name": "amount",
          "type": "uint256"
        }
      ],
      "name": "AgentFeeWithdrawn",
      "type": "event"
    },
    {
      "anonymous": false,
      "inputs": [
        {
          "indexed": true,
          "internalType": "address",
          "name": "user",
          "type": "address"
        },
        {
          "indexed": false,
          "internalType": "uint256",
          "name": "amount",
          "type": "uint256"
        }
      ],
      "name": "TokenCreditsAdded",
      "type": "event"
    },
    {
      "anonymous": false,
      "inputs": [
        {
          "indexed": false,
          "internalType": "string",
          "name": "twitterHandle",
          "type": "string"
        },
        {
          "indexed": false,
          "internalType": "address",
          "name": "userAddress",
          "type": "address"
        }
      ],
      "name": "TwitterHandleRegistered",
      "type": "event"
    },
    {
      "inputs": [],
      "name": "agentAddress",
      "outputs": [
        {
          "internalType": "address",
          "name": "",
          "type": "address"
        }
      ],
      "stateMutability": "view",
      "type": "function"
    },
    {
      "inputs": [],
      "name": "agentFeePercentage",
      "outputs": [
        {
          "internalType": "uint256",
          "name": "",
          "type": "uint256"
        }
      ],
      "stateMutability": "view",
      "type": "function"
    },
    {
      "inputs": [],
      "name": "buyTokenCredits",
      "outputs": [],
      "stateMutability": "payable",
      "type": "function"
    },
    {
      "inputs": [
        {
          "internalType": "address",
          "name": "userAddress",
          "type": "address"
        },
        {
          "internalType": "string",
          "name": "_name",
          "type": "string"
        },
        {
          "internalType": "string",
          "name": "_symbol",
          "type": "string"
        },
        {
          "internalType": "string",
          "name": "_metadataURI",
          "type": "string"
        }
      ],
      "name": "createTokenForUserViaAddress",
      "outputs": [],
      "stateMutability": "nonpayable",
      "type": "function"
    },
    {
      "inputs": [
        {
          "internalType": "string",
          "name": "twitterHandle",
          "type": "string"
        },
        {
          "internalType": "string",
          "name": "_name",
          "type": "string"
        },
        {
          "internalType": "string",
          "name": "_symbol",
          "type": "string"
        },
        {
          "internalType": "string",
          "name": "_metadataURI",
          "type": "string"
        }
      ],
      "name": "createTokenForUserViaTwitter",
      "outputs": [],
      "stateMutability": "nonpayable",
      "type": "function"
    },
    {
      "inputs": [],
      "name": "factory",
      "outputs": [
        {
          "internalType": "contract Factory",
          "name": "",
          "type": "address"
        }
      ],
      "stateMutability": "view",
      "type": "function"
    },
    {
      "inputs": [],
      "name": "getAgentBalance",
      "outputs": [
        {
          "internalType": "uint256",
          "name": "",
          "type": "uint256"
        }
      ],
      "stateMutability": "view",
      "type": "function"
    },
    {
      "inputs": [
        {
          "internalType": "string",
          "name": "twitterHandle",
          "type": "string"
        }
      ],
      "name": "getTwitterHandleAddress",
      "outputs": [
        {
          "internalType": "address",
          "name": "",
          "type": "address"
        }
      ],
      "stateMutability": "view",
      "type": "function"
    },
    {
      "inputs": [
        {
          "internalType": "address",
          "name": "user",
          "type": "address"
        }
      ],
      "name": "getUserTokenCredits",
      "outputs": [
        {
          "internalType": "uint256",
          "name": "",
          "type": "uint256"
        }
      ],
      "stateMutability": "view",
      "type": "function"
    },
    {
      "inputs": [],
      "name": "owner",
      "outputs": [
        {
          "internalType": "address",
          "name": "",
          "type": "address"
        }
      ],
      "stateMutability": "view",
      "type": "function"
    },
    {
      "inputs": [
        {
          "internalType": "string",
          "name": "twitterHandle",
          "type": "string"
        }
      ],
      "name": "registerTwitterHandle",
      "outputs": [],
      "stateMutability": "nonpayable",
      "type": "function"
    },
    {
      "inputs": [
        {
          "internalType": "address",
          "name": "_agentAddress",
          "type": "address"
        }
      ],
      "name": "setAgentAddress",
      "outputs": [],
      "stateMutability": "nonpayable",
      "type": "function"
    },
    {
      "inputs": [
        {
          "internalType": "uint256",
          "name": "_percentage",
          "type": "uint256"
        }
      ],
      "name": "setAgentFeePercentage",
      "outputs": [],
      "stateMutability": "nonpayable",
      "type": "function"
    },
    {
      "inputs": [
        {
          "internalType": "string",
          "name": "",
          "type": "string"
        }
      ],
      "name": "twitterToAddress",
      "outputs": [
        {
          "internalType": "address",
          "name": "",
          "type": "address"
        }
      ],
      "stateMutability": "view",
      "type": "function"
    },
    {
      "inputs": [
        {
          "internalType": "address",
          "name": "",
          "type": "address"
        }
      ],
      "name": "userTokenCredits",
      "outputs": [
        {
          "internalType": "uint256",
          "name": "",
          "type": "uint256"
        }
      ],
      "stateMutability": "view",
      "type": "function"
    },
    {
      "inputs": [],
      "name": "withdrawAgentFees",
      "outputs": [],
      "stateMutability": "nonpayable",
      "type": "function"
    },
    {
      "inputs": [
        {
          "internalType": "uint256",
          "name": "amount",
          "type": "uint256"
        }
      ],
      "name": "withdrawCredits",
      "outputs": [],
      "stateMutability": "nonpayable",
      "type": "function"
    }
  ],
  "bytecode": "0x60a0604052600560025534801561001557600080fd5b5060405161107b38038061107b83398101604081905261003491610086565b6001600160a01b0391821660805260008054919092166001600160a01b03199182161790915560018054909116331790556100b9565b80516001600160a01b038116811461008157600080fd5b919050565b6000806040838503121561009957600080fd5b6100a28361006a565b91506100b06020840161006a565b90509250929050565b608051610f996100e2600039600081816102df0152818161091c0152610a360152610f996000f3fe6080604052600436106100de5760003560e01c80637551e82e116100855780637551e82e1461021a578063895ce1851461023a5780638c8fb9241461025a5780638da5cb5b1461027a5780639fd0caa41461029a578063a30f684d146102ad578063c45a0155146102cd578063ec08598b14610301578063fd73a54b1461032e57600080fd5b806309ed1782146100e35780631ef7517e14610105578063386136901461012557806340306eab14610162578063539b7af01461017757806365841fec146101bb57806369e36beb146101c3578063713dff34146101d9575b600080fd5b3480156100ef57600080fd5b506101036100fe366004610ad0565b61034e565b005b34801561011157600080fd5b50610103610120366004610ad0565b610441565b34801561013157600080fd5b50600054610145906001600160a01b031681565b6040516001600160a01b0390911681526020015b60405180910390f35b34801561016e57600080fd5b506101036104b9565b34801561018357600080fd5b506101ad610192366004610b05565b6001600160a01b031660009081526004602052604090205490565b604051908152602001610159565b6101036105fd565b3480156101cf57600080fd5b506101ad60025481565b3480156101e557600080fd5b506101456101f4366004610bca565b80516020818301810180516003825292820191909301209152546001600160a01b031681565b34801561022657600080fd5b50610103610235366004610bca565b61069f565b34801561024657600080fd5b50610103610255366004610b05565b610764565b34801561026657600080fd5b50610145610275366004610bca565b6107fe565b34801561028657600080fd5b50600154610145906001600160a01b031681565b3480156102a657600080fd5b50476101ad565b3480156102b957600080fd5b506101036102c8366004610c06565b61082f565b3480156102d957600080fd5b506101457f000000000000000000000000000000000000000000000000000000000000000081565b34801561030d57600080fd5b506101ad61031c366004610b05565b60046020526000908152604090205481565b34801561033a57600080fd5b50610103610349366004610ca8565b610891565b336000908152600460205260409020548111156103865760405162461bcd60e51b815260040161037d90610cfc565b60405180910390fd5b33600090815260046020526040812080548392906103a5908490610d49565b9091555050604051600090339083908381818185875af1925050503d80600081146103ec576040519150601f19603f3d011682016040523d82523d6000602084013e6103f1565b606091505b505090508061043d5760405162461bcd60e51b815260206004820152601860248201527710dc99591a5d081dda5d1a191c985dd85b0819985a5b195960421b604482015260640161037d565b5050565b6001546001600160a01b0316331461046b5760405162461bcd60e51b815260040161037d90610d5c565b60148111156104b45760405162461bcd60e51b81526020600482015260156024820152744665652063616e6e6f74206578636565642032302560581b604482015260640161037d565b600255565b6000546001600160a01b031633146104e35760405162461bcd60e51b815260040161037d90610d9d565b47806105275760405162461bcd60e51b81526020600482015260136024820152724e6f206665657320746f20776974686472617760681b604482015260640161037d565b600080546040516001600160a01b039091169083908381818185875af1925050503d8060008114610574576040519150601f19603f3d011682016040523d82523d6000602084013e610579565b606091505b50509050806105c65760405162461bcd60e51b81526020600482015260196024820152781059d95b9d08199959481d1c985b9cd9995c8819985a5b1959603a1b604482015260640161037d565b6040518281527f0dcfddbde6631af22eca1fabb7c8b1eca34b4b40e6915b28cc0637e3fa264cbb9060200160405180910390a15050565b600034116106445760405162461bcd60e51b815260206004820152601460248201527326bab9ba1039b2b7321039b7b6b29032ba3432b960611b604482015260640161037d565b3360009081526004602052604081208054349290610663908490610dde565b909155505060405134815233907fce239af2c5abdf1b761221b15fc9848786d7cb7ac029210eedab9558e24f573b9060200160405180910390a2565b60008151116106e95760405162461bcd60e51b8152602060048201526016602482015275496e76616c696420747769747465722068616e646c6560501b604482015260640161037d565b336003826040516106fa9190610e15565b90815260405190819003602001812080546001600160a01b03939093166001600160a01b0319909316929092179091557fd29a93e46d8ad723ab54071814469849c8b44ce37145ade1a669df4e8e599ad2906107599083903390610e5d565b60405180910390a150565b6001546001600160a01b0316331461078e5760405162461bcd60e51b815260040161037d90610d5c565b6001600160a01b0381166107dc5760405162461bcd60e51b8152602060048201526015602482015274496e76616c6964206167656e74206164647265737360581b604482015260640161037d565b600080546001600160a01b0319166001600160a01b0392909216919091179055565b60006003826040516108109190610e15565b908152604051908190036020019020546001600160a01b031692915050565b6000546001600160a01b031633146108595760405162461bcd60e51b815260040161037d90610d9d565b6001600160a01b03841661087f5760405162461bcd60e51b815260040161037d90610e87565b61088b84848484610918565b50505050565b6000546001600160a01b031633146108bb5760405162461bcd60e51b815260040161037d90610d9d565b60006003856040516108cd9190610e15565b908152604051908190036020019020546001600160a01b03169050806109055760405162461bcd60e51b815260040161037d90610e87565b61091181858585610918565b5050505050565b60007f00000000000000000000000000000000000000000000000000000000000000006001600160a01b031663ddca3f436040518163ffffffff1660e01b8152600401602060405180830381865afa158015610978573d6000803e3d6000fd5b505050506040513d601f19601f8201168201806040525081019061099c9190610ebe565b905060006109a982610aae565b905060006109b78284610dde565b6001600160a01b0388166000908152600460205260409020549091508111156109f25760405162461bcd60e51b815260040161037d90610cfc565b6001600160a01b03871660009081526004602052604081208054839290610a1a908490610d49565b90915550506040516382cbdc0f60e01b81526001600160a01b037f000000000000000000000000000000000000000000000000000000000000000016906382cbdc0f908590610a73908a908a908a908e90600401610ed7565b6000604051808303818588803b158015610a8c57600080fd5b505af1158015610aa0573d6000803e3d6000fd5b505050505050505050505050565b6000606460025483610ac09190610f2a565b610aca9190610f41565b92915050565b600060208284031215610ae257600080fd5b5035919050565b80356001600160a01b0381168114610b0057600080fd5b919050565b600060208284031215610b1757600080fd5b610b2082610ae9565b9392505050565b634e487b7160e01b600052604160045260246000fd5b600082601f830112610b4e57600080fd5b81356001600160401b03811115610b6757610b67610b27565b604051601f8201601f19908116603f011681016001600160401b0381118282101715610b9557610b95610b27565b604052818152838201602001851015610bad57600080fd5b816020850160208301376000918101602001919091529392505050565b600060208284031215610bdc57600080fd5b81356001600160401b03811115610bf257600080fd5b610bfe84828501610b3d565b949350505050565b60008060008060808587031215610c1c57600080fd5b610c2585610ae9565b935060208501356001600160401b03811115610c4057600080fd5b610c4c87828801610b3d565b93505060408501356001600160401b03811115610c6857600080fd5b610c7487828801610b3d565b92505060608501356001600160401b03811115610c9057600080fd5b610c9c87828801610b3d565b91505092959194509250565b60008060008060808587031215610cbe57600080fd5b84356001600160401b03811115610cd457600080fd5b610ce087828801610b3d565b94505060208501356001600160401b03811115610c4057600080fd5b6020808252601a908201527f496e73756666696369656e7420746f6b656e2063726564697473000000000000604082015260600190565b634e487b7160e01b600052601160045260246000fd5b81810381811115610aca57610aca610d33565b60208082526021908201527f4f6e6c79206f776e65722063616e2063616c6c20746869732066756e6374696f6040820152603760f91b606082015260800190565b60208082526021908201527f4f6e6c79206167656e742063616e2063616c6c20746869732066756e6374696f6040820152603760f91b606082015260800190565b80820180821115610aca57610aca610d33565b60005b83811015610e0c578181015183820152602001610df4565b50506000910152565b60008251610e27818460208701610df1565b9190910192915050565b60008151808452610e49816020860160208601610df1565b601f01601f19169290920160200192915050565b604081526000610e706040830185610e31565b905060018060a01b03831660208301529392505050565b6020808252601d908201527f547769747465722068616e646c65206e6f742072656769737465726564000000604082015260600190565b600060208284031215610ed057600080fd5b5051919050565b608081526000610eea6080830187610e31565b8281036020840152610efc8187610e31565b90508281036040840152610f108186610e31565b91505060018060a01b038316606083015295945050505050565b8082028115828204841417610aca57610aca610d33565b600082610f5e57634e487b7160e01b600052601260045260246000fd5b50049056fea264697066735822122017bcdec044c199f696058432aa4ea869fa575b85c3e0f2bd13856ffdd7067a4064736f6c634300081c0033",
  "linkReferences": {},
  "deployedLinkReferences": {}
}